{
  "_format": "hh-sol-artifact-1",
  "contractName": "SupplyChain",
  "sourceName": "contracts/SupplyChain.sol",
  "abi": [
    {
      "inputs": [
        {
          "internalType": "uint256",
          "name": "_itemId",
          "type": "uint256"
        },
        {
          "internalType": "uint256",
          "name": "_qty",
          "type": "uint256"
        }
      ],
      "name": "accessItem",
      "outputs": [],
      "stateMutability": "nonpayable",
      "type": "function"
    },
    {
      "inputs": [
        {
          "internalType": "uint256",
          "name": "_itemId",
          "type": "uint256"
        },
        {
          "internalType": "string",
          "name": "_itemName",
          "type": "string"
        },
        {
          "internalType": "uint256",
          "name": "_mfDate",
          "type": "uint256"
        },
        {
          "internalType": "uint256",
          "name": "_expDate",
          "type": "uint256"
        },
        {
          "internalType": "uint256",
          "name": "_totalQty",
          "type": "uint256"
        }
      ],
      "name": "addItem",
      "outputs": [],
      "stateMutability": "nonpayable",
      "type": "function"
    },
    {
      "inputs": [
        {
          "internalType": "uint256",
          "name": "_itemId",
          "type": "uint256"
        },
        {
          "internalType": "uint256",
          "name": "_qty",
          "type": "uint256"
        }
      ],
      "name": "claimOwnership",
      "outputs": [],
      "stateMutability": "nonpayable",
      "type": "function"
    },
    {
      "inputs": [],
      "name": "customer",
      "outputs": [
        {
          "internalType": "address",
          "name": "",
          "type": "address"
        }
      ],
      "stateMutability": "view",
      "type": "function"
    },
    {
      "inputs": [],
      "name": "distributor",
      "outputs": [
        {
          "internalType": "address",
          "name": "",
          "type": "address"
        }
      ],
      "stateMutability": "view",
      "type": "function"
    },
    {
      "inputs": [
        {
          "internalType": "uint256",
          "name": "",
          "type": "uint256"
        }
      ],
      "name": "items",
      "outputs": [
        {
          "internalType": "uint256",
          "name": "itemId",
          "type": "uint256"
        },
        {
          "internalType": "string",
          "name": "itemName",
          "type": "string"
        },
        {
          "internalType": "uint256",
          "name": "itemMfD",
          "type": "uint256"
        },
        {
          "internalType": "uint256",
          "name": "itemExpD",
          "type": "uint256"
        },
        {
          "internalType": "uint256",
          "name": "totalQty",
          "type": "uint256"
        },
        {
          "internalType": "uint256",
          "name": "remainingQty",
          "type": "uint256"
        },
        {
          "internalType": "address",
          "name": "currentOwner",
          "type": "address"
        }
      ],
      "stateMutability": "view",
      "type": "function"
    },
    {
      "inputs": [],
      "name": "retailer",
      "outputs": [
        {
          "internalType": "address",
          "name": "",
          "type": "address"
        }
      ],
      "stateMutability": "view",
      "type": "function"
    },
    {
      "inputs": [
        {
          "internalType": "address",
          "name": "_customer",
          "type": "address"
        }
      ],
      "name": "setCustomer",
      "outputs": [],
      "stateMutability": "nonpayable",
      "type": "function"
    },
    {
      "inputs": [
        {
          "internalType": "address",
          "name": "_distributor",
          "type": "address"
        }
      ],
      "name": "setDistributor",
      "outputs": [],
      "stateMutability": "nonpayable",
      "type": "function"
    },
    {
      "inputs": [
        {
          "internalType": "address",
          "name": "_retailer",
          "type": "address"
        }
      ],
      "name": "setRetailer",
      "outputs": [],
      "stateMutability": "nonpayable",
      "type": "function"
    },
    {
      "inputs": [
        {
          "internalType": "uint256",
          "name": "_itemId",
          "type": "uint256"
        }
      ],
      "name": "viewItemBasicDetails",
      "outputs": [
        {
          "internalType": "uint256",
          "name": "itemId",
          "type": "uint256"
        },
        {
          "internalType": "string",
          "name": "itemName",
          "type": "string"
        },
        {
          "internalType": "uint256",
          "name": "totalQty",
          "type": "uint256"
        },
        {
          "internalType": "uint256",
          "name": "remainingQty",
          "type": "uint256"
        }
      ],
      "stateMutability": "view",
      "type": "function"
    },
    {
      "inputs": [
        {
          "internalType": "uint256",
          "name": "_itemId",
          "type": "uint256"
        }
      ],
      "name": "viewItemDates",
      "outputs": [
        {
          "internalType": "uint256",
          "name": "mfDay",
          "type": "uint256"
        },
        {
          "internalType": "uint256",
          "name": "mfMonth",
          "type": "uint256"
        },
        {
          "internalType": "uint256",
          "name": "mfYear",
          "type": "uint256"
        },
        {
          "internalType": "uint256",
          "name": "expDay",
          "type": "uint256"
        },
        {
          "internalType": "uint256",
          "name": "expMonth",
          "type": "uint256"
        },
        {
          "internalType": "uint256",
          "name": "expYear",
          "type": "uint256"
        },
        {
          "internalType": "address",
          "name": "currentOwner",
          "type": "address"
        }
      ],
      "stateMutability": "view",
      "type": "function"
    }
  ],
  "bytecode": "0x608060405234801561001057600080fd5b50611ad1806100206000396000f3fe608060405234801561001057600080fd5b50600436106100b45760003560e01c8063bfb231d211610071578063bfb231d21461017c578063bfe10928146101b2578063c9fe814b146101d0578063ca8cc309146101ec578063d98ae6b614610208578063dc7db56314610224576100b4565b80632804b2c0146100b95780634a1f6125146100d75780634c1249fc146100f35780635d06627c14610111578063620c0c4b1461014457806375619ab514610160575b600080fd5b6100c161025a565b6040516100ce9190611571565b60405180910390f35b6100f160048036038101906100ec9190611125565b610280565b005b6100fb6102c4565b6040516101089190611571565b60405180910390f35b61012b6004803603810190610126919061114e565b6102ea565b60405161013b94939291906116ac565b60405180910390f35b61015e60048036038101906101599190611125565b6104ab565b005b61017a60048036038101906101759190611125565b6104ef565b005b6101966004803603810190610191919061114e565b610532565b6040516101a997969594939291906116f8565b60405180910390f35b6101ba61061c565b6040516101c79190611571565b60405180910390f35b6101ea60048036038101906101e59190611206565b610640565b005b61020660048036038101906102019190611206565b6108af565b005b610222600480360381019061021d9190611177565b610b1c565b005b61023e6004803603810190610239919061114e565b610d68565b604051610251979695949392919061176e565b60405180910390f35b600260009054906101000a900473ffffffffffffffffffffffffffffffffffffffff1681565b80600160006101000a81548173ffffffffffffffffffffffffffffffffffffffff021916908373ffffffffffffffffffffffffffffffffffffffff16021790555050565b600160009054906101000a900473ffffffffffffffffffffffffffffffffffffffff1681565b6000606060008060006003600087815260200190815260200160002060000154141561034b576040517f08c379a00000000000000000000000000000000000000000000000000000000081526004016103429061166c565b60405180910390fd5b6000600360008781526020019081526020016000206040518060e0016040529081600082015481526020016001820180546103859061193d565b80601f01602080910402602001604051908101604052809291908181526020018280546103b19061193d565b80156103fe5780601f106103d3576101008083540402835291602001916103fe565b820191906000526020600020905b8154815290600101906020018083116103e157829003601f168201915b50505050508152602001600282015481526020016003820154815260200160048201548152602001600582015481526020016006820160009054906101000a900473ffffffffffffffffffffffffffffffffffffffff1673ffffffffffffffffffffffffffffffffffffffff1673ffffffffffffffffffffffffffffffffffffffff168152505090508060000151816020015182608001518360a001519450945094509450509193509193565b80600260006101000a81548173ffffffffffffffffffffffffffffffffffffffff021916908373ffffffffffffffffffffffffffffffffffffffff16021790555050565b806000806101000a81548173ffffffffffffffffffffffffffffffffffffffff021916908373ffffffffffffffffffffffffffffffffffffffff16021790555050565b600360205280600052604060002060009150905080600001549080600101805461055b9061193d565b80601f01602080910402602001604051908101604052809291908181526020018280546105879061193d565b80156105d45780601f106105a9576101008083540402835291602001916105d4565b820191906000526020600020905b8154815290600101906020018083116105b757829003601f168201915b5050505050908060020154908060030154908060040154908060050154908060060160009054906101000a900473ffffffffffffffffffffffffffffffffffffffff16905087565b60008054906101000a900473ffffffffffffffffffffffffffffffffffffffff1681565b600260009054906101000a900473ffffffffffffffffffffffffffffffffffffffff1673ffffffffffffffffffffffffffffffffffffffff163373ffffffffffffffffffffffffffffffffffffffff16146106d0576040517f08c379a00000000000000000000000000000000000000000000000000000000081526004016106c7906115ec565b60405180910390fd5b600060036000848152602001908152602001600020905060008160000154141561072f576040517f08c379a00000000000000000000000000000000000000000000000000000000081526004016107269061166c565b60405180910390fd5b8181600501541015610776576040517f08c379a000000000000000000000000000000000000000000000000000000000815260040161076d9061158c565b60405180910390fd5b600160009054906101000a900473ffffffffffffffffffffffffffffffffffffffff1673ffffffffffffffffffffffffffffffffffffffff168160060160009054906101000a900473ffffffffffffffffffffffffffffffffffffffff1673ffffffffffffffffffffffffffffffffffffffff161461082a576040517f08c379a00000000000000000000000000000000000000000000000000000000081526004016108219061168c565b60405180910390fd5b8181600501600082825461083e919061188b565b92505081905550600260009054906101000a900473ffffffffffffffffffffffffffffffffffffffff168160060160006101000a81548173ffffffffffffffffffffffffffffffffffffffff021916908373ffffffffffffffffffffffffffffffffffffffff160217905550505050565b600160009054906101000a900473ffffffffffffffffffffffffffffffffffffffff1673ffffffffffffffffffffffffffffffffffffffff163373ffffffffffffffffffffffffffffffffffffffff161461093f576040517f08c379a0000000000000000000000000000000000000000000000000000000008152600401610936906115cc565b60405180910390fd5b600060036000848152602001908152602001600020905060008160000154141561099e576040517f08c379a00000000000000000000000000000000000000000000000000000000081526004016109959061166c565b60405180910390fd5b81816005015410156109e5576040517f08c379a00000000000000000000000000000000000000000000000000000000081526004016109dc9061158c565b60405180910390fd5b60008054906101000a900473ffffffffffffffffffffffffffffffffffffffff1673ffffffffffffffffffffffffffffffffffffffff168160060160009054906101000a900473ffffffffffffffffffffffffffffffffffffffff1673ffffffffffffffffffffffffffffffffffffffff1614610a97576040517f08c379a0000000000000000000000000000000000000000000000000000000008152600401610a8e9061164c565b60405180910390fd5b81816005016000828254610aab919061188b565b92505081905550600160009054906101000a900473ffffffffffffffffffffffffffffffffffffffff168160060160006101000a81548173ffffffffffffffffffffffffffffffffffffffff021916908373ffffffffffffffffffffffffffffffffffffffff160217905550505050565b60008054906101000a900473ffffffffffffffffffffffffffffffffffffffff1673ffffffffffffffffffffffffffffffffffffffff163373ffffffffffffffffffffffffffffffffffffffff1614610baa576040517f08c379a0000000000000000000000000000000000000000000000000000000008152600401610ba19061162c565b60405180910390fd5b6000600360008781526020019081526020016000206000015414610c03576040517f08c379a0000000000000000000000000000000000000000000000000000000008152600401610bfa9061160c565b60405180910390fd5b610c0d8383610f05565b610c4c576040517f08c379a0000000000000000000000000000000000000000000000000000000008152600401610c43906115ac565b60405180910390fd5b6040518060e0016040528086815260200185815260200184815260200183815260200182815260200182815260200160008054906101000a900473ffffffffffffffffffffffffffffffffffffffff1673ffffffffffffffffffffffffffffffffffffffff1681525060036000878152602001908152602001600020600082015181600001556020820151816001019080519060200190610cee929190610ff0565b5060408201518160020155606082015181600301556080820151816004015560a0820151816005015560c08201518160060160006101000a81548173ffffffffffffffffffffffffffffffffffffffff021916908373ffffffffffffffffffffffffffffffffffffffff1602179055509050505050505050565b600080600080600080600080600360008a81526020019081526020016000206040518060e001604052908160008201548152602001600182018054610dac9061193d565b80601f0160208091040260200160405190810160405280929190818152602001828054610dd89061193d565b8015610e255780601f10610dfa57610100808354040283529160200191610e25565b820191906000526020600020905b815481529060010190602001808311610e0857829003601f168201915b50505050508152602001600282015481526020016003820154815260200160048201548152602001600582015481526020016006820160009054906101000a900473ffffffffffffffffffffffffffffffffffffffff1673ffffffffffffffffffffffffffffffffffffffff1673ffffffffffffffffffffffffffffffffffffffff16815250509050610ebb8160400151610fa5565b809850819950829a50505050610ed48160600151610fa5565b8095508196508297505050508787878787878660c00151975097509750975097509750975050919395979092949650565b600061271082610f15919061185a565b61271084610f23919061185a565b1015610f325760019050610f9f565b60648083610f40919061185a565b610f4a919061196f565b60648085610f58919061185a565b610f62919061196f565b1015610f715760019050610f9f565b606482610f7e919061196f565b606484610f8b919061196f565b1015610f9a5760019050610f9f565b600090505b92915050565b6000806000620f424084610fb9919061185a565b9250612710620f424085610fcd919061196f565b610fd7919061185a565b915061271084610fe7919061196f565b90509193909250565b828054610ffc9061193d565b90600052602060002090601f01602090048101928261101e5760008555611065565b82601f1061103757805160ff1916838001178555611065565b82800160010185558215611065579182015b82811115611064578251825591602001919060010190611049565b5b5090506110729190611076565b5090565b5b8082111561108f576000816000905550600101611077565b5090565b60006110a66110a18461180e565b6117dd565b9050828152602081018484840111156110be57600080fd5b6110c98482856118fb565b509392505050565b6000813590506110e081611a6d565b92915050565b600082601f8301126110f757600080fd5b8135611107848260208601611093565b91505092915050565b60008135905061111f81611a84565b92915050565b60006020828403121561113757600080fd5b6000611145848285016110d1565b91505092915050565b60006020828403121561116057600080fd5b600061116e84828501611110565b91505092915050565b600080600080600060a0868803121561118f57600080fd5b600061119d88828901611110565b955050602086013567ffffffffffffffff8111156111ba57600080fd5b6111c6888289016110e6565b94505060406111d788828901611110565b93505060606111e888828901611110565b92505060806111f988828901611110565b9150509295509295909350565b6000806040838503121561121957600080fd5b600061122785828601611110565b925050602061123885828601611110565b9150509250929050565b61124b816118bf565b82525050565b600061125c8261183e565b6112668185611849565b935061127681856020860161190a565b61127f81611a5c565b840191505092915050565b6000611297601f83611849565b91507f496e73756666696369656e74207175616e7469747920617661696c61626c65006000830152602082019050919050565b60006112d7602d83611849565b91507f4d616e75666163747572696e672064617465206d757374206265206265666f7260008301527f65206578706972792064617465000000000000000000000000000000000000006020830152604082019050919050565b600061133d602483611849565b91507f4f6e6c792072657461696c65722063616e2063616c6c20746869732066756e6360008301527f74696f6e000000000000000000000000000000000000000000000000000000006020830152604082019050919050565b60006113a3602483611849565b91507f4f6e6c7920637573746f6d65722063616e2063616c6c20746869732066756e6360008301527f74696f6e000000000000000000000000000000000000000000000000000000006020830152604082019050919050565b6000611409601683611849565b91507f4974656d20494420616c726561647920657869737473000000000000000000006000830152602082019050919050565b6000611449602783611849565b91507f4f6e6c79206469737472696275746f722063616e2063616c6c2074686973206660008301527f756e6374696f6e000000000000000000000000000000000000000000000000006020830152604082019050919050565b60006114af601983611849565b91507f4974656d206e6f742077697468206469737472696275746f72000000000000006000830152602082019050919050565b60006114ef601383611849565b91507f4974656d20646f6573206e6f74206578697374000000000000000000000000006000830152602082019050919050565b600061152f601683611849565b91507f4974656d206e6f7420776974682072657461696c6572000000000000000000006000830152602082019050919050565b61156b816118f1565b82525050565b60006020820190506115866000830184611242565b92915050565b600060208201905081810360008301526115a58161128a565b9050919050565b600060208201905081810360008301526115c5816112ca565b9050919050565b600060208201905081810360008301526115e581611330565b9050919050565b6000602082019050818103600083015261160581611396565b9050919050565b60006020820190508181036000830152611625816113fc565b9050919050565b600060208201905081810360008301526116458161143c565b9050919050565b60006020820190508181036000830152611665816114a2565b9050919050565b60006020820190508181036000830152611685816114e2565b9050919050565b600060208201905081810360008301526116a581611522565b9050919050565b60006080820190506116c16000830187611562565b81810360208301526116d38186611251565b90506116e26040830185611562565b6116ef6060830184611562565b95945050505050565b600060e08201905061170d600083018a611562565b818103602083015261171f8189611251565b905061172e6040830188611562565b61173b6060830187611562565b6117486080830186611562565b61175560a0830185611562565b61176260c0830184611242565b98975050505050505050565b600060e082019050611783600083018a611562565b6117906020830189611562565b61179d6040830188611562565b6117aa6060830187611562565b6117b76080830186611562565b6117c460a0830185611562565b6117d160c0830184611242565b98975050505050505050565b6000604051905081810181811067ffffffffffffffff8211171561180457611803611a2d565b5b8060405250919050565b600067ffffffffffffffff82111561182957611828611a2d565b5b601f19601f8301169050602081019050919050565b600081519050919050565b600082825260208201905092915050565b6000611865826118f1565b9150611870836118f1565b9250826118805761187f6119cf565b5b828204905092915050565b6000611896826118f1565b91506118a1836118f1565b9250828210156118b4576118b36119a0565b5b828203905092915050565b60006118ca826118d1565b9050919050565b600073ffffffffffffffffffffffffffffffffffffffff82169050919050565b6000819050919050565b82818337600083830152505050565b60005b8381101561192857808201518184015260208101905061190d565b83811115611937576000848401525b50505050565b6000600282049050600182168061195557607f821691505b60208210811415611969576119686119fe565b5b50919050565b600061197a826118f1565b9150611985836118f1565b925082611995576119946119cf565b5b828206905092915050565b7f4e487b7100000000000000000000000000000000000000000000000000000000600052601160045260246000fd5b7f4e487b7100000000000000000000000000000000000000000000000000000000600052601260045260246000fd5b7f4e487b7100000000000000000000000000000000000000000000000000000000600052602260045260246000fd5b7f4e487b7100000000000000000000000000000000000000000000000000000000600052604160045260246000fd5b6000601f19601f8301169050919050565b611a76816118bf565b8114611a8157600080fd5b50565b611a8d816118f1565b8114611a9857600080fd5b5056fea2646970667358221220f648c22a16905e5a3da99e07628a02ab01db3a42684bb8eed2e49a928c31e56f64736f6c63430008000033",
  "linkReferences": {},
  "deployedLinkReferences": {}
}